:020000040800F2
:10000000680600208901000891010008930100089A
:100010009501000897010008990100080000000000
:100020000000000000000000000000009B0100082C
:100030009D010008000000009F010008A1010008C8
:10004000A3010008A3010008A3010008A301000800
:10005000A3010008A3010008A3010008A3010008F0
:10006000A3010008A3010008A3010008A3010008E0
:10007000A3010008A3010008A3010008A3010008D0
:10008000A3010008A3010008A3010008A3010008C0
:10009000A3010008A3010008A3010008A3010008B0
:1000A000A3010008A3010008A3010008A3010008A0
:1000B000A3010008A3010008A3010008A301000890
:1000C000A3010008A3010008A3010008A301000880
:1000D00011030008A3010008A3010008A301000800
:1000E000A3010008A3010008A301000800F002F822
:1000F00000F03AF80AA090E8000C82448344AAF188
:100100000107DA4501D100F02FF8AFF2090EBAE885
:100110000F0013F0010F18BFFB1A43F0010318473B
:1001200098040000B8040000103A24BF78C878C1D1
:10013000FAD8520724BF30C830C144BF04680C60ED
:10014000704700000023002400250026103A28BF35
:1001500078C1FBD8520728BF30C148BF0B60704739
:100160001FB51FBD10B510BD00F031F81146FFF7E7
:10017000F7FF00F019FA00F04FF803B4FFF7F2FFB1
:1001800003BC00F057F800000948804709480047C1
:10019000FEE7FEE7FEE7FEE7FEE7FEE7FEE7FEE737
:1001A000FEE7FEE704480549054A064B7047000094
:1001B00049050008ED0000086800002068060020DE
:1001C000680200206802002070477047704775463B
:1001D00000F02CF8AE4605006946534620F00700B3
:1001E000854618B020B5FFF7DDFFBDE820404FF091
:1001F00000064FF000074FF000084FF0000B21F011
:100200000701AC46ACE8C009ACE8C009ACE8C009DD
:10021000ACE8C0098D46704710B50446AFF30080C6
:100220002046BDE81040FFF7A8BF00000048704717
:100230000400002001491820ABBEFEE726000200A2
:10024000704708B54FF4C06000F048F824208DF8DE
:10025000000000208DF8010001208DF802008DF8CB
:100260000300684600F002F808BD000070B50021E8
:1002700000230F22C47804B3154C246804F4E0640E
:10028000C4F5E064210AC1F10403CA40447804FAC9
:1002900003F184781440214309010E4C0678A155DE
:1002A000047804F01F050124AC4005786D11AD0001
:1002B00005F1E025C5F8004109E0047804F01F05C8
:1002C0000124AC40044D0678761145F8264070BDF7
:1002D0000CED00E000E400E080E100E002490143B1
:1002E000024A1160704700000000FA050CED00E0C2
:1002F00029B1064AD2690243044BDA6104E0034A99
:10030000D2698243014BDA6170470000001002405D
:1003100010B56021074800F01FF848B10648007882
:10032000401C05490870034800F040F80349087074
:1003300010BD000000380040000000200100002037
:1003400021B1028842F04002028004E002884FF6A8
:10035000BF731A4002807047F0B5024600200024A7
:100360000023002501F00F070126BE40B4B20B1197
:1003700001269E40B3B2968806EA030516892640F8
:1003800016B10DB1012000E00020F0BD30B5002411
:1003900000230C110125A540ABB21AB185881D437D
:1003A000858002E085889D43858030BD014688892F
:1003B000704710B50022028802F441520B884C8825
:1003C00023438C882343CC8823430C8923434C89C3
:1003D00023438C892343CC8923431A430280838B94
:1003E0004FF2FF74234083830B8A038210BD000009
:1003F0000448006800F4805008B1002070470120D4
:10040000FCE70000080C014000B585B0012188031D
:10041000FFF76EFF2020ADF80C000020ADF80800BB
:10042000ADF80600ADF80400ADF80000ADF80E0020
:10043000ADF802004FF40070ADF80A0069460748B5
:10044000FFF7B7FF01210548FFF77AFF012260217E
:100450000248FFF79BFF05B000BD000000380040D8
:1004600010B500F001F810BD0CB50020019000900F
:100470003348006840F480303149086000BF30489C
:10048000006800F4003000900198401C0190009832
:1004900018B90198B0F5A06FF1D12948006800F4AF
:1004A000003010B10120009001E000200090009881
:1004B000012843D12348006840F01000214908601A
:1004C0000846006820F0070008600846006840F011
:1004D000020008601A4840681949486008464068A8
:1004E00048600846406840F48060486008464068BC
:1004F00020F47C1048600846406840F4E8104860EA
:100500000846006840F08070086000BF0C48006832
:1005100000F000700028F9D00948406820F003007E
:10052000074948600846406840F00200486000BF44
:100530000348406800F00C000828F9D10CBD000009
:10054000001002400020024010B51348006840F03F
:1005500001001149086008464068104908400E49EA
:100560004860084600680E4908400B490860084684
:10057000006820F4802008600846406820F4FE00EF
:1005800048604FF41F008860FFF76AFF4FF000607B
:100590000449086010BD0000001002400000FFF890
:1005A000FFFFF6FE08ED00E0FFF74BFEFFF72CFF24
:1005B00001E0FFF71DFFFCE7D80500080000002060
:1005C0000400000028010008DC05000804000020E9
:0C05D00064060000440100080000000068
:040000050800018965
:00000001FF
