:020000040800F2
:10000000600600206D0100087501000877010008F6
:10001000790100087B0100087D0100080000000054
:100020000000000000000000000000007F01000848
:10003000810100080000000083010008850100081C
:100040008701000887010008870100088701000870
:100050008701000887010008870100088701000860
:100060008701000887010008870100088701000850
:100070008701000887010008870100088701000840
:100080008701000887010008870100088701000830
:100090008701000887010008870100088701000820
:1000A0008701000887010008870100088701000810
:1000B0008701000887010008870100088701000800
:1000C00087010008870100088701000887010008F0
:1000D00087010008870100088701000887010008E0
:1000E00087010008870100088701000800F002F876
:1000F00000F02CF80AA090E8000C82448344AAF196
:100100000107DA4501D100F021F8AFF2090EBAE893
:100110000F0013F0010F18BFFB1A43F0010318473B
:10012000E8050000F8050000002300240025002653
:10013000103A28BF78C1FBD8520728BF30C148BF4A
:100140000B6070471FB51FBD10B510BD00F031F832
:100150001146FFF7F7FF00F0BDFA00F04FF803B4C7
:10016000FFF7F2FF03BC00F057F800000948804792
:1001700009480047FEE7FEE7FEE7FEE7FEE7FEE789
:10018000FEE7FEE7FEE7FEE704480549054A064BA1
:10019000704700005D050008ED00000860000020C9
:1001A0006006002060020020600200207047704757
:1001B0007047754600F02CF8AE4605006946534678
:1001C00020F00700854618B020B5FFF7DDFFBDE839
:1001D00020404FF000064FF000074FF000084FF0AE
:1001E000000B21F00701AC46ACE8C009ACE8C0093F
:1001F000ACE8C009ACE8C0098D46704710B50446AC
:10020000AFF300802046BDE81040FFF7A8BF000014
:10021000004870470000002001491820ABBEFEE7EF
:1002200026000200704710B500F0B3F801218807DE
:1002300000F0C4F900214FF0804000F0CEF900BF7B
:100240004FF0804000F0C6F948F6A0418842F7DB45
:1002500000214FF0804000F0B1F910BD10B5044608
:1002600001E0FFF7E0FF201EA4F10104F9D110BD69
:100270002DE9F0410246002500260020002300243D
:10028000002791F803C00CF00F0591F803C00CF0A3
:10029000100CBCF1000F03D091F802C04CEA050528
:1002A00091F800C0BCF1000F31D0146800202BE0A1
:1002B0004FF0010C0CFA00F3B1F800C00CEA030691
:1002C0009E4220D183004FF00F0C0CFA03F7BC4381
:1002D00005FA03FC4CEA040491F803C0BCF1280FB2
:1002E00006D14FF0010C0CFA00FCC2F814C00AE071
:1002F00091F803C0BCF1480F05D14FF0010C0CFA86
:1003000000FCC2F810C0401C0828D1D31460B1F81A
:1003100000C0BCF1FF0F34DD546800202EE000F176
:10032000080C4FF0010808FA0CF3B1F800C00CEA11
:1003300003069E4221D183004FF00F0C0CFA03F705
:10034000BC4305FA03FC4CEA040491F803C0BCF179
:10035000280F05D100F1080C08FA0CF8C2F8148037
:1003600091F803C0BCF1480F07D100F1080C4FF021
:10037000010808FA0CF8C2F81080401C0828CED3F7
:100380005460BDE8F0814161704701617047C16010
:1003900070470EB50121084600F04CF80020ADF87A
:1003A00002000120ADF800004FF6FF70ADF8040028
:1003B00069464FF0804000F013F90EBD10B50446B9
:1003C00010210B48FFF7DFFF08210948FFF7DBFF8B
:1003D00020210748FFF7D7FF21460648FFF7D7FF40
:1003E00020210348FFF7D1FF0220FFF737FF10BDA0
:1003F000000C01400008014010B5044610210B48D4
:10040000FFF7C1FF08210948FFF7BFFF2021074878
:10041000FFF7B9FF21460648FFF7B9FF202103483F
:10042000FFF7B3FF0220FFF719FF10BD000C0140DA
:100430000008014029B1064AD2690243044BDA613F
:1004400004E0034AD2698243014BDA61704700003D
:100450000010024029B1064A92690243044B9A6196
:1004600004E0034A92698243014B9A61704700009D
:100470000010024010B500F001F810BD0CB50020CE
:10048000019000903348006840F4803031490860A2
:1004900000BF3048006800F4003000900198401C14
:1004A0000190009818B90198B0F5A06FF1D12948D2
:1004B000006800F4003010B10120009001E000203D
:1004C00000900098012843D12348006840F01000B4
:1004D000214908600846006820F0070008600846C7
:1004E000006840F0020008601A48406819494860F6
:1004F0000846406848600846406840F480604860AC
:100500000846406820F47C1048600846406840F483
:10051000E81048600846006840F08070086000BF3E
:100520000C48006800F000700028F9D009484068C5
:1005300020F00300074948600846406840F0020088
:10054000486000BF0348406800F00C000828F9D15B
:100550000CBD0000001002400020024010B51348FE
:10056000006840F0010011490860084640681049E1
:1005700008400E494860084600680E4908400B498B
:1005800008600846006820F480200860084640683B
:1005900020F4FE0048604FF41F008860FFF76AFFF8
:1005A0004FF000600449086010BD000000100240D8
:1005B0000000FFF8FFFFF6FE08ED00E021B1028821
:1005C00042F00102028004E002884FF6FE731A40F6
:1005D000028070470146888C704781847047000014
:1005E000002202881D4B98420ED01D4B98420BD022
:1005F000B0F1804F08D01B4B984205D01A4B98425F
:1006000002D01A4B984204D14FF68F731A404B8890
:100610001A43174B984207D0164B984204D04FF616
:10062000FF431A40CB881A4302808B8883850B884E
:1006300003850A4B98420BD0094B984208D00E4BC9
:10064000984205D00D4B984202D00D4B984201D1F3
:100650000B7A03860123838270470000002C01403F
:10066000003401400004004000080040000C00403D
:1006700000100040001400400040014000440140D0
:10068000004801401CB501210420FFF7E3FE1020C3
:100690008DF80700FF20ADF8040002208DF8060059
:1006A00001A90A48FFF7E4FD01210820FFF7D2FE67
:1006B00010208DF803003820ADF8000002208DF8DE
:1006C000020069460248FFF7D3FD1CBD0008014047
:1006D000000C0140FFF7D6FF0120FFF76FFE03205B
:1006E000FFF76CFE3820FFF769FE0620FFF766FE75
:1006F0000C20FFF763FE8020FFF760FE4220FFF72B
:100700007BFE00BFFEE70000180700080000002085
:0807100060060000280100084A
:040000050800016D81
:00000001FF
