:020000040800F2
:10000000600600206D0100087501000877010008F6
:10001000790100087B0100087D0100080000000054
:100020000000000000000000000000007F01000848
:10003000810100080000000083010008850100081C
:100040008701000887010008870100088701000870
:100050008701000887010008870100088701000860
:100060008701000887010008870100088701000850
:100070008701000887010008870100088701000840
:100080008701000887010008870100088701000830
:100090008701000887010008870100088701000820
:1000A0008701000887010008870100088701000810
:1000B0008701000887010008870100088701000800
:1000C00087010008870100088701000887010008F0
:1000D00087010008870100088701000887010008E0
:1000E00087010008870100088701000800F002F876
:1000F00000F02CF80AA090E8000C82448344AAF196
:100100000107DA4501D100F021F8AFF2090EBAE893
:100110000F0013F0010F18BFFB1A43F0010318473B
:10012000D0060000E0060000002300240025002681
:10013000103A28BF78C1FBD8520728BF30C148BF4A
:100140000B6070471FB51FBD10B510BD00F037F82C
:100150001146FFF7F7FF00F021FB00F055F803B45C
:10016000FFF7F2FF03BC00F059F800000948804790
:1001700009480047FEE7FEE7FEE7FEE7FEE7FEE789
:10018000FEE7FEE7FEE7FEE704480549054A064BA1
:100190007047000075060008ED00000860000020B0
:1001A0006006002060020020600200207047704757
:1001B00070470000004870470000002070477546F7
:1001C000FFF7F8FFAE4605006946534620F00700EA
:1001D000854618B020B5FFF7D7FFBDE820404FF0A7
:1001E00000064FF000074FF000084FF0000B21F021
:1001F0000701AC46ACE8C009ACE8C009ACE8C009EE
:10020000ACE8C0098D46704710B50446AFF30080D6
:100210002046BDE81040FFF7A2BF000001491820AA
:10022000ABBEFEE72600020010B500F0E0F80121A9
:10023000880700F04FFA00214FF0804000F059FA93
:1002400000BF4FF0804000F051FA48F6A0418842CC
:10025000F7DB00214FF0804000F03CFA10BD10B5F4
:10026000044601E0FFF7E0FF201EA4F10104F9D1EC
:1002700010BD2DE9F0410246002500260020002394
:100280000024002791F803C00CF00F0591F803C07B
:100290000CF0100CBCF1000F03D091F802C04CEA36
:1002A000050591F800C0BCF1000F31D014680020A2
:1002B0002BE04FF0010C0CFA00F3B1F800C00CEA8F
:1002C00003069E4220D183004FF00F0C0CFA03F777
:1002D000BC4305FA03FC4CEA040491F803C0BCF1EA
:1002E000280F06D14FF0010C0CFA00FCC2F814C024
:1002F0000AE091F803C0BCF1480F05D14FF0010CA2
:100300000CFA00FCC2F810C0401C0828D1D31460BD
:10031000B1F800C0BCF1FF0F34DD546800202EE0BE
:1003200000F1080C4FF0010808FA0CF3B1F800C016
:100330000CEA03069E4221D183004FF00F0C0CFA09
:1003400003F7BC4305FA03FC4CEA040491F803C02C
:10035000BCF1280F05D100F1080C08FA0CF8C2F81E
:10036000148091F803C0BCF1480F07D100F1080CCC
:100370004FF0010808FA0CF8C2F81080401C082859
:10038000CED35460BDE8F08108B50121142000F0FF
:10039000EDF800220B210F4800F024F800224FF462
:1003A00060410D4800F01EF810208DF803000F206A
:1003B000ADF8000001208DF8020069460548FFF7FE
:1003C00058FF4FF46040ADF8000069460248FFF75F
:1003D00050FF08BD00080140001001404161704716
:1003E000016170470AB1016100E0416170470EB5DB
:1003F0000121084600F0AAF80020ADF80200012013
:10040000ADF800004FF6FF70ADF8040069464FF0FC
:10041000804000F071F90EBD10B54FF4004107485F
:10042000FFF7DEFF0220FFF71AFF4FF400410348F9
:10043000FFF7D4FF0220FFF712FF10BD00100140AC
:1004400070B506460C461CB906F18000C5B204E042
:10045000012C02D106F1C000C5B2284600F068F8B0
:1004600070BD000010B5FFF78FFF002000F042F8CC
:1004700000224FF400510F48FFF7B4FF032000F0B3
:1004800039F8FFF7C9FFFFF7C7FFFFF7C5FF0220E5
:1004900000F030F8FFF7C0FF282000F049F80C20EA
:1004A00000F046F8062000F043F8012000F040F884
:1004B00010BD00000010014010B504464FF400517B
:1004C0000548FFF78DFF204600F032F84FF4005149
:1004D0000148FFF783FF10BD0010014010B504462E
:1004E00003E02078FFF7E8FF641C20780028F8D1AB
:1004F00010BD000010B5044604F0010201210B48B4
:10050000FFF770FFC4F3400202210848FFF76AFFBB
:10051000C4F3800204210548FFF764FFC4F3C0025E
:1005200008210248FFF75EFF10BD000000080140EF
:1005300010B504462011FFF7DDFFFFF76DFF2046E1
:10054000FFF7D8FFFFF768FF10BD000029B1064A8A
:10055000D2690243044BDA6104E0034AD269824360
:10056000014BDA61704700000010024029B1064AD1
:1005700092690243044B9A6104E0034A9269824300
:10058000014B9A61704700000010024010B500F066
:1005900001F810BD0CB500200190009033480068B0
:1005A00040F480303149086000BF3048006800F4F2
:1005B000003000900198401C0190009818B90198F3
:1005C000B0F5A06FF1D12948006800F4003010B1F7
:1005D0000120009001E0002000900098012843D104
:1005E0002348006840F01000214908600846006870
:1005F00020F0070008600846006840F0020008602C
:100600001A484068194948600846406848600846EA
:10061000406840F4806048600846406820F47C10E0
:1006200048600846406840F4E810486008460068A2
:1006300040F08070086000BF0C48006800F0007057
:100640000028F9D00948406820F0030007494860B5
:100650000846406840F00200486000BF0348406818
:1006600000F00C000828F9D10CBD00000010024079
:100670000020024010B51348006840F00100114905
:10068000086008464068104908400E49486008461E
:1006900000680E4908400B4908600846006820F4CD
:1006A000802008600846406820F4FE0048604FF44F
:1006B0001F008860FFF76AFF4FF000600449086080
:1006C00010BD0000001002400000FFF8FFFFF6FE22
:1006D00008ED00E021B1028842F00102028004E04E
:1006E00002884FF6FE731A40028070470146888CDC
:1006F0007047818470470000002202881D4B984299
:100700000ED01D4B98420BD0B0F1804F08D01B4B40
:10071000984205D01A4B984202D01A4B984204D105
:100720004FF68F731A404B881A43174B984207D0E5
:10073000164B984204D04FF6FF431A40CB881A4319
:1007400002808B8883850B8803850A4B98420BD0E7
:10075000094B984208D00E4B984205D00D4B984259
:1007600002D00D4B984201D10B7A0386012383827C
:1007700070470000002C014000340140000400409C
:1007800000080040000C0040001000400014004031
:100790000040014000440140004801401CB50BA14D
:1007A00003C9CDE90001FFF75DFE00210846FFF710
:1007B00047FE08A0FFF792FE01210020FFF740FE50
:1007C00008A0FFF78BFE00201CBD00000001020402
:1007D00005060000486F616E67204D696E68204E07
:1007E00068616E0031372F30362F323030330000E1
:1007F0000008000800000020600600002801000832
:040000050800016D81
:00000001FF
