:020000040800F2
:10000000680600208901000891010008930100089A
:100010009501000897010008990100080000000000
:100020000000000000000000000000009B0100082C
:100030009D010008000000009F010008A1010008C8
:10004000A3010008A3010008A3010008A301000800
:10005000A3010008A3010008A3010008A3010008F0
:10006000A3010008A3010008A3010008A3010008E0
:10007000A3010008A3010008A3010008A3010008D0
:10008000A3010008A3010008A3010008A3010008C0
:10009000A3010008A3010008A3010008A3010008B0
:1000A000A3010008A3010008A3010008A3010008A0
:1000B000A3010008A3010008A3010008A301000890
:1000C000A3010008A3010008A3010008A301000880
:1000D000A3010008A3010008A3010008A301000870
:1000E000A3010008A3010008A301000800F002F822
:1000F00000F03AF80AA090E8000C82448344AAF188
:100100000107DA4501D100F02FF8AFF2090EBAE885
:100110000F0013F0010F18BFFB1A43F0010318473B
:10012000F007000010080000103A24BF78C878C11A
:10013000FAD8520724BF30C830C144BF04680C60ED
:10014000704700000023002400250026103A28BF35
:1001500078C1FBD8520728BF30C148BF0B60704739
:100160001FB51FBD10B510BD00F031F81146FFF7E7
:10017000F7FF00F0AFFB00F04FF803B4FFF7F2FF1A
:1001800003BC00F057F800000948804709480047C1
:10019000FEE7FEE7FEE7FEE7FEE7FEE7FEE7FEE737
:1001A000FEE7FEE704480549054A064B7047000094
:1001B00039070008ED0000086800002068060020EC
:1001C000680200206802002070477047704775463B
:1001D00000F02CF8AE4605006946534620F00700B3
:1001E000854618B020B5FFF7DDFFBDE820404FF091
:1001F00000064FF000074FF000084FF0000B21F011
:100200000701AC46ACE8C009ACE8C009ACE8C009DD
:10021000ACE8C0098D46704710B50446AFF30080C6
:100220002046BDE81040FFF7A8BF00000048704717
:100230000400002001491820ABBEFEE726000200A2
:10024000704710B500F04FF90121880700F0A4FABB
:1002500000214FF0804000F0AEFA00BF4FF0804028
:1002600000F0A6FA48F6A0418842F7DB00214FF0E3
:10027000804000F091FA10BD10B5044601E0FFF790
:10028000E0FF201EA4F10104F9D110BD2DE9F041D9
:1002900006460F46232E15D2DFE806F01215181B6E
:1002A0001E2124272A2D303336393C4044474A4DFD
:1002B000505356595C5F6265686B6E7276797D004B
:1002C0003E4C01256BE03D4C022568E03B4C04258B
:1002D00065E03A4C082562E0384C10255FE0374C69
:1002E00020255CE0354C402559E0344C802556E013
:1002F000324CA51553E0314C651550E02F4C2515B7
:100300004DE02E4CE5144AE02C4CA51447E02B4C54
:10031000651444E0294C4FF4804540E0274C4FF4ED
:1003200000453CE0264C012539E0254C022536E00D
:10033000234C042533E0224C082530E0204C1025C6
:100340002DE01F4C20252AE01D4C402527E01C4CA9
:10035000802524E01A4CA51521E0194C65151EE0F6
:10036000174C25151BE0164CE51418E0144CA51489
:1003700015E0134C651412E0114C4FF480450EE06B
:100380000F4C4FF400450AE00E4C651407E00D4C8D
:100390004FF4804503E00B4C4FF4004500BF00BF15
:1003A000012F04D12946204600F09BF803E029469E
:1003B000204600F094F8BDE8F081000000080140FC
:1003C000000C0140001001402DE9F04102460025DB
:1003D0000026002000230024002791F803C00CF021
:1003E0000F0591F803C00CF0100CBCF1000F03D006
:1003F00091F802C04CEA050591F800C0BCF1000F6D
:1004000031D0146800202BE04FF0010C0CFA00F3FF
:10041000B1F800C00CEA03069E4220D183004FF0E1
:100420000F0C0CFA03F7BC4305FA03FC4CEA040476
:1004300091F803C0BCF1280F06D14FF0010C0CFA63
:1004400000FCC2F814C00AE091F803C0BCF1480FE8
:1004500005D14FF0010C0CFA00FCC2F810C0401C92
:100460000828D1D31460B1F800C0BCF1FF0F34DD0F
:10047000546800202EE000F1080C4FF0010808FA43
:100480000CF3B1F800C00CEA03069E4221D18300B0
:100490004FF00F0C0CFA03F7BC4305FA03FC4CEACF
:1004A000040491F803C0BCF1280F05D100F1080C39
:1004B00008FA0CF8C2F8148091F803C0BCF1480F98
:1004C00007D100F1080C4FF0010808FA0CF8C2F847
:1004D0001080401C0828CED35460BDE8F0814161F3
:1004E0007047016170470EB50121084600F010F811
:1004F0000020ADF802000120ADF800004FF6FF70BB
:10050000ADF8040069464FF0804000F057F90EBD89
:1005100029B1064AD2690243044BDA6104E0034A76
:10052000D2698243014BDA6170470000001002403B
:1005300029B1064A92690243044B9A6104E0034AD6
:1005400092698243014B9A6170470000001002409B
:1005500021B1028842F04002028004E002884FF696
:10056000BF731A40028070470246002013890B4077
:100570000BB1012000E0002070478181704710B569
:100580000022028802F441520B884C8823438C8855
:100590002343CC8823430C8923434C8923438C89F0
:1005A0002343CC8923431A430280838B4FF2FF7489
:1005B000234083830B8A038210BD10B500F002F83C
:1005C00010BD00000CB50020019000903348006879
:1005D00040F480303149086000BF3048006800F4C2
:1005E000003000900198401C0190009818B90198C3
:1005F000B0F5A06FF1D12948006800F4003010B1C7
:100600000120009001E0002000900098012843D1D3
:100610002348006840F0100021490860084600683F
:1006200020F0070008600846006840F002000860FB
:100630001A484068194948600846406848600846BA
:10064000406840F4806048600846406820F47C10B0
:1006500048600846406840F4E81048600846006872
:1006600040F08070086000BF0C48006800F0007027
:100670000028F9D00948406820F003000749486085
:100680000846406840F00200486000BF03484068E8
:1006900000F00C000828F9D10CBD00000010024049
:1006A0000020024008B501218803FFF731FF202018
:1006B00000990880002000994880022000998880D5
:1006C00000200099088100994881009988814FF4A1
:1006D00082700099C8814FF40070009908826946C1
:1006E0000348FFF74CFF01210148FFF731FF08BD28
:1006F0000038004070B504460D46022C16D100F0BB
:10070000AFF800211C20FFF7C1FD29780948FFF749
:1007100034FF00BF80210748FFF726FF0028F9D0EB
:1007200001211C20FFF7B2FD002070BD00BF012099
:10073000FBE700000038004010B51348006840F0A7
:1007400001001149086008464068104908400E49F8
:100750004860084600680E4908400B490860084692
:10076000006820F4802008600846406820F4FE00FD
:1007700048604FF41F008860FFF71FFF4FF00060D4
:100780000449086010BD0000001002400000FFF89E
:10079000FFFFF6FE08ED00E021B1028842F0010201
:1007A000028004E002884FF6FE731A400280704710
:1007B0000146888C704781847047000000220288BF
:1007C0001D4B98420ED01D4B98420BD0B0F1804F7C
:1007D00008D01B4B984205D01A4B984202D01A4BB6
:1007E000984204D14FF68F731A404B881A43174B27
:1007F000984207D0164B984204D04FF6FF431A4058
:10080000CB881A4302808B8883850B8803850A4B2B
:1008100098420BD0094B984208D00E4B984205D015
:100820000D4B984202D00D4B984201D10B7A0386B2
:100830000123838270470000002C014000340140F6
:100840000004004000080040000C00400010004080
:1008500000140040004001400044014000480140B5
:1008600008B501210820FFF763FE10208DF8030072
:100870004FF43040ADF8000002208DF802006946C8
:100880000848FFF7A1FD48208DF803004FF4804091
:10089000ADF8000002208DF8020069460148FFF71C
:1008A00093FD08BD0008014008B501211020FFF7A5
:1008B0003FFE10208DF803004002ADF8000002203A
:1008C0008DF8020069460248FFF77EFD08BD000072
:1008D0000010014010B5FFF7E5FE0C490220FFF7BC
:1008E00009FF88B9FFF7E0FF0DE000212020FFF7A6
:1008F000CDFCC820FFF7C0FC01212020FFF7C6FC7B
:10090000C820FFF7B9FCF0E7002010BD0000002070
:100910003009000800000020040000002801000841
:1009200034090008040000206406000044010008A7
:040930003000000093
:040000050800018965
:00000001FF
