:020000040800F2
:10000000680600208901000891010008930100089A
:100010009501000897010008990100080000000000
:100020000000000000000000000000009B0100082C
:100030009D010008000000009F010008A1010008C8
:10004000A3010008A3010008A3010008A301000800
:10005000A3010008A3010008A3010008A3010008F0
:10006000A3010008A3010008A3010008A3010008E0
:10007000A3010008A3010008A3010008A3010008D0
:10008000A3010008A3010008A3010008A3010008C0
:10009000A3010008A3010008A3010008A3010008B0
:1000A000A3010008A3010008A3010008A3010008A0
:1000B000A3010008A3010008A3010008A301000890
:1000C000A3010008A3010008A3010008A301000880
:1000D000A3010008A3010008A3010008A301000870
:1000E000A3010008A3010008A301000800F002F822
:1000F00000F03AF80AA090E8000C82448344AAF188
:100100000107DA4501D100F02FF8AFF2090EBAE885
:100110000F0013F0010F18BFFB1A43F0010318473B
:100120008C070000AC070000103A24BF78C878C1E3
:10013000FAD8520724BF30C830C144BF04680C60ED
:10014000704700000023002400250026103A28BF35
:1001500078C1FBD8520728BF30C148BF0B60704739
:100160001FB51FBD10B510BD00F031F81146FFF7E7
:10017000F7FF00F073FB00F04FF803B4FFF7F2FF56
:1001800003BC00F057F800000948804709480047C1
:10019000FEE7FEE7FEE7FEE7FEE7FEE7FEE7FEE737
:1001A000FEE7FEE704480549054A064B7047000094
:1001B000E9060008ED00000868000020680600203D
:1001C000680200206802002070477047704775463B
:1001D00000F02CF8AE4605006946534620F00700B3
:1001E000854618B020B5FFF7DDFFBDE820404FF091
:1001F00000064FF000074FF000084FF0000B21F011
:100200000701AC46ACE8C009ACE8C009ACE8C009DD
:10021000ACE8C0098D46704710B50446AFF30080C6
:100220002046BDE81040FFF7A8BF00000048704717
:100230000400002001491820ABBEFEE726000200A2
:100240007047000010B500F0AFF90121034800F03D
:10025000C9F808B9002010BD0120FCE700080140E2
:1002600010B50221064800F0D1F8052000F025F86D
:100270000221034800F0C8F8052000F01EF810BD68
:100280000008014010B500F059F90121880700F07D
:100290005BFA00214FF0804000F065FA00BF4FF09C
:1002A000804000F05DFA48F6A0418842F7DB00216B
:1002B0004FF0804000F048FA10BD10B5044601E050
:1002C000FFF7E0FF201EA4F10104F9D110BD2DE9D4
:1002D000F0410246002500260020002300240027CC
:1002E00091F803C00CF00F0591F803C00CF0100C4E
:1002F000BCF1000F03D091F802C04CEA050591F85B
:1003000000C0BCF1000F31D0146800202BE04FF08A
:10031000010C0CFA00F3B1F800C00CEA03069E428F
:1003200020D183004FF00F0C0CFA03F7BC4305FA01
:1003300003FC4CEA040491F803C0BCF1280F06D179
:100340004FF0010C0CFA00FCC2F814C00AE091F85E
:1003500003C0BCF1480F05D14FF0010C0CFA00FCB2
:10036000C2F810C0401C0828D1D31460B1F800C0F6
:10037000BCF1FF0F34DD546800202EE000F1080CC2
:100380004FF0010808FA0CF3B1F800C00CEA0306BC
:100390009E4221D183004FF00F0C0CFA03F7BC43AF
:1003A00005FA03FC4CEA040491F803C0BCF1280FE1
:1003B00005D100F1080C08FA0CF8C2F8148091F885
:1003C00003C0BCF1480F07D100F1080C4FF0010841
:1003D00008FA0CF8C2F81080401C0828CED35460EC
:1003E000BDE8F0810246002093680B400BB101206C
:1003F00000E00020704702460020D3680B400BB19C
:10040000012000E0002070474161704701617047A2
:1004100010B5044600201849087027E004F0800059
:1004200038B901211548FFF7EFFF00201449087083
:1004300006E001211148FFF7E9FF0120104908708B
:100440006006040E0F4800784006000E0D49087043
:10045000084600780A49097808430A490870FFF7F6
:10046000FFFE05480078401C0349087002480078E8
:100470000828D3DB10BD0000010000200008014067
:10048000030000200200002010B5044600200E49A1
:10049000087014E004F0800020B901210B48FFF738
:1004A000B3FF03E001210948FFF7B0FF6006040E27
:1004B000FFF7D6FE04480078401C03490870024844
:1004C00000780828E6DB10BD00000020000801408D
:1004D00010B501210A48FFF799FF02210848FFF7EC
:1004E00095FF0520FFF7E9FE01210548FFF78CFF86
:1004F0000520FFF7E2FE02210148FFF785FF10BD4E
:100500000008014010B502210648FFF774FF0128DA
:1005100007D101210348FFF777FF01210148FFF7C9
:1005200075FF10BD0008014010B501210248FFF71A
:100530006BFFFFF795FE10BD000801400EB50121CD
:10054000084600F011F80020ADF802000120ADF8D7
:1005500000004FF6FF70ADF8040069464FF0804090
:1005600000F004F90EBD000029B1064AD269024329
:10057000044BDA6104E0034AD2698243014BDA6139
:10058000704700000010024029B1064A92690243F8
:10059000044B9A6104E0034A92698243014B9A61D9
:1005A000704700000010024008B501210420FFF749
:1005B000EBFF48208DF803000120ADF80000022079
:1005C0008DF8020069460248FFF781FE08BD000071
:1005D0000008014008B501210420FFF7D5FF1020D5
:1005E0008DF803000120ADF8000002208DF8020014
:1005F00069460248FFF76BFE08BD00000008014095
:1006000010B500F001F810BD0CB50020019000906D
:100610003348006840F480303149086000BF3048FA
:10062000006800F4003000900198401C0190009890
:1006300018B90198B0F5A06FF1D12948006800F40D
:10064000003010B10120009001E0002000900098DF
:10065000012843D12348006840F010002149086078
:100660000846006820F0070008600846006840F06F
:10067000020008601A484068194948600846406806
:1006800048600846406840F480604860084640681A
:1006900020F47C1048600846406840F4E810486048
:1006A0000846006840F08070086000BF0C48006891
:1006B00000F000700028F9D00948406820F00300DD
:1006C000074948600846406840F00200486000BFA3
:1006D0000348406800F00C000828F9D10CBD000068
:1006E000001002400020024010B51348006840F09E
:1006F00001001149086008464068104908400E4949
:100700004860084600680E4908400B4908600846E2
:10071000006820F4802008600846406820F4FE004D
:1007200048604FF41F008860FFF76AFF4FF00060D9
:100730000449086010BD0000001002400000FFF8EE
:10074000FFFFF6FE08ED00E021B1028842F0010251
:10075000028004E002884FF6FE731A400280704760
:100760000146888C7047818470470000002202880F
:100770001D4B98420ED01D4B98420BD0B0F1804FCC
:1007800008D01B4B984205D01A4B984202D01A4B06
:10079000984204D14FF68F731A404B881A43174B77
:1007A000984207D0164B984204D04FF6FF431A40A8
:1007B000CB881A4302808B8883850B8803850A4B7C
:1007C00098420BD0094B984208D00E4B984205D066
:1007D0000D4B984202D00D4B984201D10B7A038603
:1007E0000123838270470000002C01400034014047
:1007F0000004004000080040000C004000100040D1
:100800000014004000400140004401400048014005
:100810001CB501210420FFF7B7FE10208DF807005A
:100820000E20ADF8040002208DF8060001A90A4848
:10083000FFF74DFD01210820FFF7A6FE48208DF8A7
:1008400003000120ADF8000002208DF80600694683
:100850000148FFF73CFD1CBD000801400120FFF7E7
:10086000D7FFFFF7B7FE1DE0FFF732FE3220FFF79C
:10087000CFFDFFF759FE14E0FFF7E4FC18B938206C
:10088000FFF702FE03E004210748FFF7BFFDFFF773
:10089000D9FC10B9FFF736FE03E008210248FFF744
:1008A000B5FDE9E7E0E7000000080140CC080008DA
:1008B000000000200400000028010008D008000803
:1008C000040000206406000044010008000000004D
:040000050800018965
:00000001FF
