:020000040800F2
:10000000600600206D0100087501000877010008F6
:10001000790100087B0100087D0100080000000054
:100020000000000000000000000000007F01000848
:10003000810100080000000083010008850100081C
:100040008701000887010008870100088701000870
:100050008701000887010008870100088701000860
:100060008701000887010008870100088701000850
:100070008701000887010008870100088701000840
:100080008701000887010008870100088701000830
:100090008701000887010008870100088701000820
:1000A0008701000887010008870100088701000810
:1000B0008701000887010008870100088701000800
:1000C00087010008870100088701000887010008F0
:1000D00087010008870100088701000887010008E0
:1000E00087010008870100088701000800F002F876
:1000F00000F02CF80AA090E8000C82448344AAF196
:100100000107DA4501D100F021F8AFF2090EBAE893
:100110000F0013F0010F18BFFB1A43F0010318473B
:1001200034060000440600000023002400250026B9
:10013000103A28BF78C1FBD8520728BF30C148BF4A
:100140000B6070471FB51FBD10B510BD00F031F832
:100150001146FFF7F7FF00F095FA00F04FF803B4EF
:10016000FFF7F2FF03BC00F057F800000948804792
:1001700009480047FEE7FEE7FEE7FEE7FEE7FEE789
:10018000FEE7FEE7FEE7FEE704480549054A064BA1
:1001900070470000B1050008ED0000086000002075
:1001A0006006002060020020600200207047704757
:1001B0007047754600F02CF8AE4605006946534678
:1001C00020F00700854618B020B5FFF7DDFFBDE839
:1001D00020404FF000064FF000074FF000084FF0AE
:1001E000000B21F00701AC46ACE8C009ACE8C0093F
:1001F000ACE8C009ACE8C0098D46704710B50446AC
:10020000AFF300802046BDE81040FFF7A8BF000014
:10021000004870470000002001491820ABBEFEE7EF
:10022000260002007047000070B50646122E40D22C
:10023000DFE806F0090C0F1215181B1E2124272ACF
:100240002D303336393C204C012532E01E4C02253E
:100250002FE01D4C04252CE01B4C082529E01A4CEE
:10026000102526E0184C202523E0174C402520E0DF
:10027000154C80251DE0144CA5151AE0134C0125E2
:1002800017E0124C022514E0104C042511E00F4C2D
:1002900008250EE00D4C10250BE00C4C202508E045
:1002A0000A4C402505E0094C802502E0074CA515C5
:1002B00000BF00BF2946204600F0EBF808B9002037
:1002C00070BD0120FCE7000000080140000C014067
:1002D00070B506460C4616B1012E04D101E0254D3D
:1002E00001E0254D00BF00BF24B93F21284600F0A2
:1002F000D9F83DE0012C04D10621284600F0D2F8BF
:1003000036E0022C04D15B21284600F0CBF82FE028
:10031000032C04D14F21284600F0C4F828E0042C17
:1003200004D16621284600F0BDF821E0052C04D157
:100330006D21284600F0B6F81AE0062C04D17D2184
:10034000284600F0AFF813E0072C04D10721284617
:1003500000F0A8F80CE0082C04D17F21284600F01A
:10036000A1F805E0092C03D16F21284600F09AF886
:1003700070BD000000080140000C01402DE9F04173
:10038000024600250026002000230024002791F8C3
:1003900003C00CF00F0591F803C00CF0100CBCF179
:1003A000000F03D091F802C04CEA050591F800C097
:1003B000BCF1000F31D0146800202BE04FF0010C8D
:1003C0000CFA00F3B1F800C00CEA03069E4220D1FB
:1003D00083004FF00F0C0CFA03F7BC4305FA03FC43
:1003E0004CEA040491F803C0BCF1280F06D14FF089
:1003F000010C0CFA00FCC2F814C00AE091F803C02A
:10040000BCF1480F05D14FF0010C0CFA00FCC2F80A
:1004100010C0401C0828D1D31460B1F800C0BCF152
:10042000FF0F34DD546800202EE000F1080C4FF07F
:10043000010808FA0CF3B1F800C00CEA03069E426A
:1004400021D183004FF00F0C0CFA03F7BC4305FADF
:1004500003FC4CEA040491F803C0BCF1280F05D159
:1004600000F1080C08FA0CF8C2F8148091F803C0E7
:10047000BCF1480F07D100F1080C4FF0010808FA51
:100480000CF8C2F81080401C0828CED35460BDE898
:10049000F0810246002093680B400BB1012000E080
:1004A00000207047C160704729B1064A9269024333
:1004B000044B9A6104E0034A92698243014B9A61BA
:1004C000704700000010024010B500F001F810BDA8
:1004D0000CB50020019000903348006840F4803053
:1004E0003149086000BF3048006800F400300090D7
:1004F0000198401C0190009818B90198B0F5A06FC0
:10050000F1D12948006800F4003010B101200090BA
:1005100001E0002000900098012843D123480068A2
:1005200040F01000214908600846006820F00700EC
:1005300008600846006840F0020008601A484068F9
:10054000194948600846406848600846406840F4D9
:10055000806048600846406820F47C104860084687
:10056000406840F4E81048600846006840F0807039
:10057000086000BF0C48006800F000700028F9D047
:100580000948406820F00300074948600846406871
:1005900040F00200486000BF0348406800F00C00D3
:1005A0000828F9D10CBD00000010024000200240D4
:1005B00010B51348006840F0010011490860084672
:1005C0004068104908400E494860084600680E49D6
:1005D00008400B4908600846006820F48020086045
:1005E0000846406820F4FE0048604FF41F00886011
:1005F000FFF76AFF4FF000600449086010BD00007B
:10060000001002400000FFF8FFFFF6FE08ED00E0DA
:100610001CB501210420FFF747FF10208DF80700CB
:1006200040F2FF10ADF8040002208DF8060001A989
:100630000A48FFF7A3FE01210820FFF735FF4820F5
:100640008DF803000120ADF8000002208DF80200B3
:1006500069460348FFF792FE1CBD000000080140F8
:10066000000C0140002006E000BF00E0401C0449EF
:100670008842FBD3401C02498842F5D370470000F2
:1006800040420F00FFF7C4FF002462E00920FFF79B
:10069000CBFD00285DD100BF0920FFF7C5FD002874
:1006A000FAD00A2C00D100240A2C4CD2DFE804F046
:1006B000050C131A21282F363D4400210846FFF768
:1006C00007FEFFF7CFFF3EE001210020FFF700FE0D
:1006D000FFF7C8FF37E002210020FFF7F9FDFFF721
:1006E000C1FF30E003210020FFF7F2FDFFF7BAFF62
:1006F00029E004210020FFF7EBFDFFF7B3FF22E024
:1007000005210020FFF7E4FDFFF7ACFF1BE0062109
:100710000020FFF7DDFDFFF7A5FF14E00721002013
:10072000FFF7D6FDFFF79EFF0DE008210020FFF741
:10073000CFFDFFF797FF06E009210020FFF7C8FD76
:10074000FFF790FF00BF00BF601CC4B20A2C00D1AD
:1007500000249BE7640700080000002060060000FA
:040760002801000864
:040000050800016D81
:00000001FF
